:100000000C9464000C94370C0C94640C0C948C00CD
:100010000C948C000C948C000C948C000C948C0030
:100020000C948C000C9450090C948C000C948C0053
:100030000C948C000C948C000C948C000C948C0010
:100040000C94D3010C948C000C94AA030C948C0097
:100050000C948C000C948C000C948C000C948C00F0
:100060000C944F0D0C948C0000000000240027001D
:100070002A0000000000250028002B0000000000DE
:1000800023002600290004040404040404040202DA
:100090000202020203030303030301020408102007
:1000A0004080010204081020010204081020000012
:1000B0000007000201000003040600000000000029
:1000C00000008E000705D20711241FBECFEFD8E035
:1000D000DEBFCDBF12E0A0E0B1E0EAEAFFE202C07D
:1000E00005900D92A232B107D9F713E0A2E2B2E077
:1000F00001C01D92A639B107E1F710E0C8ECD0E0CD
:1001000004C02297FE010E94A716C23CD107C9F77E
:100110000E9455010C94D3170C94000008950F937E
:100120001F938DE00E945B03892B09F04DC084E092
:1001300061E00E940E0383EB92E060E071E00E94B8
:100140004E056091090170910A0183EB92E00E94D3
:10015000950683EB92E00E946605809109019091DB
:100160000A01019604E610E0809FA001819F500DD6
:10017000909F500D1124662757FD6095762F82E2DF
:1001800092E020E230E00E94630A84E060E00E9496
:100190000E038091090190910A0101969C01209F14
:1001A000C001219F900D309F900D11240E94D00B13
:1001B0008091090190910A01181619062CF40197F3
:1001C00090930A018093090182E00E945B03892BCE
:1001D00031F485E090E090930A01809309011F912A
:1001E0000F91089584E061E00E94EE0283E061E0F7
:1001F0000E94EE028DE060E00E94EE028DE061E080
:100200000E940E0382E060E00E94EE0282E061E064
:100210000E940E0383EB92E040E051EE60E070E05C
:100220000E94430482E292E066E270E00E941F0AAC
:1002300084E061E00E940E036AEF70E080E090E0ED
:100240000E947C0284E060E00E940E036AEF70E08E
:1002500080E090E00E947C0284E061E00E940E0356
:100260006AEF70E080E090E00E947C0284E060E051
:100270000E940E036AEF70E080E090E00E947C0232
:1002800084E061E00E940E036AEF70E080E090E09D
:100290000E947C0284E060E00E940E036AEF70E03E
:1002A00080E090E00E947C0208950E94B4020E94C7
:1002B000F2000E948F00FDCFCF93DF93EC0140E06E
:1002C00050E060E070E021E030E025C0762F652F3F
:1002D000542F4427992787FD9095A92FB92F482B94
:1002E000592B6A2B7B2B2430310591F482E292E06A
:1002F00020E230E00E94630A64E670E080E090E073
:100300000E947C0240E050E060E070E020E030E0DD
:1003100021962F5F3F4F88818823C1F62130310518
:1003200039F415C0762F652F542F44272F5F3F4F88
:1003300025303105B9F782E292E020E230E00E94F8
:10034000630A64E670E080E090E00E947C02DF9146
:10035000CF91089509C083ED92E00E947F07682F36
:1003600083EB92E00E943E0583ED92E00E947907C4
:10037000882389F70895EF92FF920F931F937C01D2
:1003800003ED12E0C80160E270E00E946F07C8014F
:10039000B7010E942008C8010E942B081F910F91ED
:1003A000FF90EF9008951F920F920FB60F921124B5
:1003B0002F938F939F93AF93BF938091230290913C
:1003C0002402A0912502B09126020196A11DB11D23
:1003D0008093230290932402A0932502B0932602D7
:1003E0008091270290912802A0912902B0912A02BF
:1003F0008050904CAF4FBF4F8093270290932802BC
:10040000A0932902B0932A0227C0809127029091DD
:100410002802A0912902B0912A0280589E43A04050
:10042000B0408093270290932802A0932902B093B2
:100430002A0280912B0290912C02A0912D02B09162
:100440002E020196A11DB11D80932B0290932C02C8
:10045000A0932D02B0932E02809127029091280242
:10046000A0912902B0912A0281589E43A040B04039
:1004700060F6BF91AF919F918F912F910F900FBE1A
:100480000F901F9018958FB7F89420912B02309100
:100490002C0240912D0250912E028FBFB901CA014A
:1004A00008956FB7F89486B590E0A0E0B0E0A89BFF
:1004B00008C00097A105B10521F480E091E0A0E01B
:1004C000B0E0209123023091240240912502509106
:1004D00026026FBF542F432F322F2227280F391F98
:1004E0004A1F5B1F82E0220F331F441F551F8A954E
:1004F000D1F7B901CA010895EF92FF920F931F93AC
:100500007B018C018FB7F89440912B0250912C0203
:1005100060912D0270912E028FBF2FB7F8948091B9
:100520002B0290912C02A0912D02B0912E022FBF90
:10053000841B950BA60BB70BE816F9060A071B07D9
:1005400060F71F910F91FF90EF900895019759F078
:10055000FC01EE0FFF1FEE0FFF1F32978FB7F894CD
:100560003197F1F78FBF0895789484B5826084BD88
:1005700084B5816084BD85B5826085BD85B58160A7
:1005800085BDEEE6F0E0808181608083E1E8F0E007
:10059000808182608083808181608083E0E8F0E0F8
:1005A000808181608083E1EBF0E0808184608083E2
:1005B000E0EBF0E0808181608083EAE7F0E0808119
:1005C0008460808380818260808380818160808379
:1005D0008081806880831092C1000895282F30E0C8
:1005E000C90186569F4FFC0194912A573F4FF9014C
:1005F0008491882391F0E82FF0E0EE0FFF1FE85977
:10060000FF4FA591B491662329F48C91909589238D
:100610008C9308958C91892B8C930895482F50E0EA
:10062000CA0182559F4FFC012491CA0186569F4FF3
:10063000FC0194914A575F4FFA0134913323D1F171
:10064000222331F1233021F4809180008F7705C07F
:10065000243031F4809180008F7D8093800018C019
:10066000213019F484B58F7704C0223021F484B589
:100670008F7D84BD0DC0263021F48091B0008F772E
:1006800005C0273029F48091B0008F7D8093B000A1
:10069000E32FF0E0EE0FFF1FEE58FF4FA591B4914E
:1006A000662329F48C91909589238C9308958C91DD
:1006B000892B8C930895682F70E0CB0182559F4F52
:1006C000FC012491CB0186569F4FFC0144916A574F
:1006D0007F4FFB019491992319F420E030E038C05A
:1006E000222331F1233021F4809180008F7705C0DF
:1006F000243031F4809180008F7D8093800018C079
:10070000213019F484B58F7704C0223021F484B5E8
:100710008F7D84BD0DC0263021F48091B0008F778D
:1007200005C0273029F48091B0008F7D8093B00000
:10073000892F90E0880F991F84589F4FFC01A59145
:10074000B4918C9120E030E0842311F021E030E07E
:10075000C90108951F920F920FB60F9211242F9383
:100760003F934F935F936F937F938F939F93AF9339
:10077000BF93EF93FF934091C600E091AF02F091D9
:10078000B002CF01019660E870E00E940A169C0159
:100790008091B1029091B2022817390739F0E15DDA
:1007A000FD4F40833093B0022093AF02FF91EF9151
:1007B000BF91AF919F918F917F916F915F914F9179
:1007C0003F912F910F900FBE0F901F9018958F9211
:1007D000AF92CF92DF92EF92FF920F931F93DF932E
:1007E000CF93CDB7DEB7FC018FE091E0918380839A
:1007F00073836283558344833783268311870087FD
:10080000F386E286D586C486A68687868D85808B0C
:100810008E85818BCF91DF911F910F91FF90EF908B
:10082000DF90CF90AF908F9008958F92AF92CF923C
:10083000DF92EF92FF920F931F93DF93CF93CDB789
:10084000DEB7FC018FE091E0918380837383628344
:10085000558344833783268311870087F386E28696
:10086000D586C486A68687868D85808B8E85818B6E
:10087000CF91DF911F910F91FF90EF90DF90CF907C
:10088000AF908F900895AF92BF92CF92DF92EF9288
:10089000FF920F931F93CF93DF936C017A018B012B
:1008A000DC011496AD90BC901597CB01BA0122E003
:1008B00030E040E050E00E943F16205C3D4B404F4E
:1008C0005F4FCA01B901A80197010E943F16C901F3
:1008D000DA010197A109B109292F3A2F4B2F55278A
:1008E00047FD5A950196A11DB11DE5012883E6013A
:1008F000EE81FF8181508083EA85FB85208141E084
:1009000050E0CA010E8402C0880F991F0A94E2F7D2
:10091000282B2083EA85FB852081CA010F8402C031
:10092000880F991F0A94E2F7282B2083EA85FB851C
:100930008081088802C0440F551F0A94E2F7842B77
:100940008083DF91CF911F910F91FF90EF90DF9007
:10095000CF90BF90AF900895DC011296ED91FC917D
:100960001397E058FF4F8191919180589F4F2081BC
:100970003181821B930B60E870E00E940A16089593
:10098000CF93DF93DC011296ED91FC911397EF0169
:10099000CE57DF4F48815981E058FF4F80819181C8
:1009A000E058F0408417950719F42FEF3FEF0CC083
:1009B000E40FF51F2081CA01019660E870E00E94F3
:1009C0000A169983888330E0C901DF91CF91089599
:1009D000DC011296ED91FC911397EE57FF4F808149
:1009E0009181929382930895FC01A085B18521891C
:1009F0008C9190E0022E02C0959587950A94E2F7BB
:100A000080FFF6CF0484F585E02D608308958FE0A4
:100A100091E09093B4028093B3028FE292E09093BE
:100A2000B6028093B50285EC90E09093B802809373
:100A3000B70284EC90E09093BA028093B90280EC04
:100A400090E09093BC028093BB0281EC90E0909385
:100A5000BE028093BD0286EC90E09093C00280932A
:100A6000BF0284E08093C10283E08093C20287E0EA
:100A70008093C30285E08093C4020895DC01ED9168
:100A8000FC910190F081E02D09950895DC01ED9134
:100A9000FC910190F081E02D099508950F931F932B
:100AA000CF93DF938C01EB0109C02196D801ED9122
:100AB000FC910190F081E02DC801099568816623C1
:100AC000A1F7DF91CF911F910F9108950F931F937D
:100AD0008C01DC01ED91FC910190F081E02D6DE045
:100AE0000995D801ED91FC910190F081E02DC801AC
:100AF0006AE009951F910F9108950F931F938C0140
:100B0000DC01ED91FC910190F081E02D0995C80187
:100B10000E9466051F910F9108950F931F938C01FA
:100B20000E944E05C8010E9466051F910F9108950D
:100B30000F931F938C01DC01ED91FC910190F081EA
:100B4000E02D0995C8010E9466051F910F91089537
:100B50002F923F924F925F926F927F928F929F92CD
:100B6000AF92BF92CF92DF92EF92FF920F931F93BB
:100B7000DF93CF93CDB7DEB7A0970FB6F894DEBF63
:100B80000FBECDBF1C016A017B01411551056105F6
:100B9000710549F4DC01ED91FC910190F081E02DAB
:100BA00060E3099554C0882499245401422E5524A9
:100BB0006624772401E010E00C0F1D1F080D191D9D
:100BC000C701B601A30192010E941D16F8016083BE
:100BD0000894811C911CA11CB11CC701B601A30182
:100BE00092010E941D16C901DA016C017D01C11438
:100BF000D104E104F104F1F681E0E82EF12CEC0ED1
:100C0000FD1EE80CF91C3E010894611C711CD50105
:100C1000C4010197A109B1096C01C818D90814C011
:100C2000F601EE0DFF1D60816A3010F4605D01C0B9
:100C3000695CD101ED91FC910190F081E02DC10141
:100C400009950894E108F1086E147F0449F7A0960D
:100C50000FB6F894DEBF0FBECDBFCF91DF911F91CD
:100C60000F91FF90EF90DF90CF90BF90AF909F904B
:100C70008F907F906F905F904F903F902F9008954E
:100C80002AE00E94A80508950F931F938C010E94EB
:100C90004006C8010E9466051F910F910895AB019F
:100CA00060E070E00E94400608950F931F938C014E
:100CB000AB0160E070E00E944006C8010E9466053A
:100CC0001F910F910895EF92FF920F931F93CF936F
:100CD000DF93EC017A018B0177FF0FC0E881F98186
:100CE0000190F081E02D6DE2099510950095F0944A
:100CF000E094E11CF11C011D111DCE01B801A701FA
:100D00002AE00E94A805DF91CF911F910F91FF90DB
:100D1000EF9008950F931F938C010E946306C80102
:100D20000E9466051F910F910895AB01662757FD3C
:100D30006095762F0E94630608950F931F938C0190
:100D4000AB01662757FD6095762F0E946306C801A8
:100D50000E9466051F910F910895DC012115310550
:100D600041F4ED91FC910190F081E02D642F099503
:100D700008952A30310519F40E94630608950E94EF
:100D8000A80508950F931F938C010E94AD06C8011A
:100D90000E9466051F910F9108959F92AF92BF9296
:100DA000CF92DF92EF92FF920F931F93CF93DF9337
:100DB000EC017A018B01922ECB01BA0120E030E0E8
:100DC00040E050E00E94AE12882364F4E881F9818B
:100DD0000190F081E02DCE016DE2099517FB109591
:100DE00017F9109520E030E040E05FE3AA240BC043
:100DF000CA01B90120E030E040E251E40E94D21182
:100E00009B01AC01A394A91498F3C801B7010E94F7
:100E1000AB105B016C010E94020F7B018C01CE01C3
:100E2000B801A7010E944006992029F0CE0161E196
:100E300071E00E944E05C801B7010E9490139B010A
:100E4000AC01C601B5010E947A1020C020E030E05C
:100E500040E251E40E94D8107B018C010E943C13B7
:100E60005B016C01CC24B7FCC094DC2CCE01B60134
:100E7000A5010E946306C601B5010E94DE129B0116
:100E8000AC01C801B7010E947A109A949920F1F63A
:100E9000DF91CF911F910F91FF90EF90DF90CF9056
:100EA000BF90AF909F90089522E00E94CD060895D4
:100EB0000F931F938C010E945407C8010E9466057E
:100EC0001F910F9108950895089581E08093CE02B7
:100ED0006093C9021092CC021092CD02089581E075
:100EE0008093CE026093C9021092CC021092CD0280
:100EF00008958091C8029091C702891B089590912E
:100F0000C7028091C802981710F080E00895E09120
:100F1000C502F091C602E90FF11D80819F5F909399
:100F2000C70208959C018091D1029091D202892B31
:100F300011F19091C7028091C8029817E0F090E0FB
:100F40000BC0E091C502F091C602EA0FFB1FA20F91
:100F5000B31F8C9180839F5FA92FB0E0A617B707BE
:100F600084F31092C7026093C802E091D102F0911D
:100F7000D202CB0109950895E091CF02F091D00201
:100F8000309729F01092CC021092CD020995089565
:100F90007093D2026093D10208957093D00260934F
:100FA000CF0208950895DF93CF930F92CDB7DEB7A8
:100FB00069838091CE028823A9F08091CD0280328E
:100FC000B0F48091CC02E091CA02F091CB02E80F1C
:100FD000F11D60838091CC028F5F8093CC0280935F
:100FE000CD0205C0CE01019661E00E94100D0F9068
:100FF000CF91DF9108950E94D3070895EF92FF9259
:101000000F931F93CF93DF937C01042F8091CE0227
:10101000882359F0EB0110E005C0C70169910E94D7
:10102000D3071F5F1017C8F304C0CB01642F0E94C1
:10103000100DDF91CF911F910F91FF90EF900895C8
:10104000DB010D900020E9F71197A61BB70B4A2F83
:101050000E94FE0708956091CA027091CB028091B0
:10106000C9024091CD0221E00E94CB0C1092CC022B
:101070001092CD021092CE020895862F6091C50283
:101080007091C602413208F040E20E94950C109225
:10109000C7028093C80208950E943D08089580E227
:1010A00090E061E070E00E94AB168093C5029093DF
:1010B000C6021092C7021092C80280E290E061E07E
:1010C00070E00E94AB168093CA029093CB021092FC
:1010D000CC021092CD020E94D10E08950F931F935F
:1010E0008C01862F0E94910C8CEB97E00E94320DB0
:1010F00082E997E00E942D0DC8010E944F081F91C0
:101100000F9108950E946E0808956093D402109282
:10111000D60208956093D4021092D602089582E018
:101120008093D502109271030895CF93DF93EB0162
:10113000E885F985828193818838910508F46DC02E
:1011400082819381853E910508F067C06FC08481DC
:101150009581809708F46FC084819581C79708F0C6
:101160006AC086819781099708F465C08681978156
:10117000429708F060C01F821E828FEF9FEFAFEF93
:10118000BFEF8A839B83AC83BD833EC084819581FE
:101190008234910508F441C084819581803791059E
:1011A00008F03BC0369620E030E040E050E063E0DD
:1011B00070E080819181099780F1808191814297CF
:1011C00060F53FC082819381879708F041C0220F6C
:1011D000331F441F551F216008C08D919C910D97AE
:1011E000E0F4220F331F441F551F349661347105FC
:1011F00019F06E5F7F4FDDCF80E290E09F838E839A
:101200002A833B834C835D8381E090E099838883CC
:1012100021E030E040E050E004C020E030E040E079
:1012200050E0B901CA01DF91CF9108958091710317
:10123000843009F48CCF80917103843408F0A6CFF8
:10124000ECCFDF01129682819381469708F0BACFE6
:101250008D919C911197069700F3BFCF9C01FB01E4
:1012600089ED92E091878087809171038287138650
:101270008091D502853081F4C9010E9495086115DD
:1012800071058105910519F021E030E007C082E089
:101290008093D5021092710320E030E0C9010895D7
:1012A0001F920F920FB60F9211242F933F934F93DB
:1012B0005F936F937F938F939F93AF93BF93EF93BE
:1012C000FF9381EA8093B2008091D4020E945B0375
:1012D000482F8091D7029091D80201969093D8021E
:1012E0008093D702809171038C3418F085E080934D
:1012F000D5028091D5028330D1F0843020F4823041
:1013000009F059C006C0843071F1853009F053C02E
:101310004CC0442309F04FC08091D7029091D8026D
:101320008436910508F443C0109271031EC0413009
:1013300009F041C080917103E82FF0E02091D702BD
:101340003091D802EE0FFF1FEC52FD4F36832583FC
:101350008F5F809371031092D8021092D70284E0BD
:101360008093D50228C04423B9F480917103E82FFB
:10137000F0E02091D7023091D802EE0FFF1FEC521F
:10138000FD4F368325838F5F809371031092D802BF
:101390001092D70283E0E4CF8091D7029091D802D7
:1013A0008536910540F085E0DBCF442321F410928F
:1013B000D8021092D7028091D602882329F04423C4
:1013C00011F42D9A01C02D98FF91EF91BF91AF912B
:1013D0009F918F917F916F915F914F913F912F914D
:1013E0000F900FBE0F901F9018956093D602672B39
:1013F00021F08DE061E00E94EE0208951092B000AD
:10140000E1EBF0E080818B7F80838081826080834C
:1014100080818E7F8083E0E7F0E08081816080833F
:1014200081EA8093B200789482E08093D502109292
:1014300071038091D40260E00E94EE020895EF9261
:10144000FF920F931F937B01E0E7F0E080818E7F96
:10145000808383E061E00E94EE0283E060E00E940E
:101460000E0381E08093B00089E08093B1000027F3
:10147000F7FC0095102F60E47FE180E090E0A80188
:1014800097010E943F16E3EBF0E02083808163E048
:101490000E94FE158093B4001F910F91FF90EF9072
:1014A0000895CB01E0EBF0E020812F7D20830E94A6
:1014B000A6020895CB01E0EBF0E0208120622083BA
:1014C0000E94A6020895AF92BF92CF92DF92EF9250
:1014D000FF920F931F93CF93DF93EC017A018B015F
:1014E000590168E370E00E941F0ACE0168E273E2CE
:1014F0000E945A0ACE0164E971E10E94510ACC248B
:10150000DD241CC017FF09C0CE0160E372E00E9419
:101510005A0ACE0160E476E008C0CE0160E372E0D2
:101520000E945A0ACE0160E372E00E94510AEE0C5A
:10153000FF1C001F111F0894C11CD11CCA14DB041E
:101540000CF3CE0160E372E00E945A0ACE0160E023
:1015500070E00E94510ADF91CF911F910F91FF908F
:10156000EF90DF90CF90BF90AF900895EF92FF92F1
:101570000F931F930E9451029B01AC01E0907203F4
:10158000F0907303009174031091750380917703B9
:101590008823A9F02E193F09400B510B245F3140DD
:1015A0004040504060F01092760310927203109207
:1015B00073031092740310927503109277031F91B6
:1015C0000F91FF90EF900895DF92EF92FF920F93AB
:1015D0001F9384E00E945B03DD24019711F4DD2456
:1015E000D3940E9451029B01AC01E0907203F090F1
:1015F00073030091740310917503E114F104010564
:10160000110569F4D09276030E945102609372032F
:1016100070937303809374039093750353C0809108
:1016200077038823C1F42E193F09400B510B245B2B
:10163000304040405040293231054105510508F005
:1016400041C081E080937703D092760310927A03B1
:1016500010927B0337C0809176038D1569F4109248
:101660007603109272031092730310927403109217
:1016700075031092770326C0882339F4DD2029F002
:1016800080917A03816080937A0380917A03880F36
:1016900080937A0380917B038F5F80937B030E940A
:1016A0005102609372037093730380937403909359
:1016B000750310927B03E0917803F0917903809198
:1016C0007A0309951F910F91FF90EF90DF90089595
:1016D0001F93CF93DF93182FC0E0D0E084E060E049
:1016E0000E940E0380ED90E00E94A60260E011309F
:1016F00009F461E084E00E940E0380ED90E00E9416
:10170000A6022196C830D10549F7DF91CF911F91EC
:101710000895EF92FF920F931F93CF93DF937C0175
:101720008B0184E061E00E94EE0284E060E00E94B0
:101730000E0380ED97E00E94A602C0E0D0E007C053
:10174000F701EC0FFD1F80810E94680B2196C017E6
:10175000D107B4F384E061E00E940E0384E060E00E
:101760000E94EE02DF91CF911F910F91FF90EF90B9
:101770000895DF93CF9300D000D0CDB7DEB7698353
:101780007A838B839C83CE01019664E070E00E9493
:10179000890B0F900F900F900F90CF91DF910895CC
:1017A000DF93CF9300D0CDB7DEB79A838983CE0184
:1017B000019662E070E00E94890B0F900F90CF912C
:1017C000DF910895DC010D900020E9F7A81BB90B0B
:1017D000BD010E94890B08950F931F938C0184E033
:1017E00060E00E94EE02109379030093780380E09A
:1017F00064EE7AE041E050E00E94010C1F910F91ED
:101800000895823000F5E82FF0E0EE0FFF1FE45856
:10181000FC4F71836083882319F08130A1F408C0E4
:10182000809169008C7F842B80936900E89A0895E9
:1018300080916900440F551F440F551F837F842BEF
:1018400080936900E99A0895823080F4882319F022
:10185000813021F402C0E89801C0E998E82FF0E057
:10186000EE0FFF1FE458FC4F1182108208951F9263
:101870000F920FB60F9211242F933F934F935F93C4
:101880006F937F938F939F93AF93BF93EF93FF9348
:1018900080917C0390917D03892B29F0E0917C035A
:1018A000F0917D030995FF91EF91BF91AF919F91C9
:1018B0008F917F916F915F914F913F912F910F90F9
:1018C0000FBE0F901F9018951F920F920FB60F9298
:1018D00011242F933F934F935F936F937F938F9335
:1018E0009F93AF93BF93EF93FF9380917E0390916B
:1018F0007F03892B29F0E0917E03F0917F03099506
:10190000FF91EF91BF91AF919F918F917F916F91D7
:101910005F914F913F912F910F900FBE0F901F90AD
:101920001895880F8093BA000895982F413210F0CF
:1019300040E02FC0809180038823E1F781E080930D
:1019400080038FEF80939103109288034093890363
:10195000990F91609093810385EE8093BC008091F4
:1019600080038130E1F380918803841710F4409163
:101970008803A0918603B091870320E030E007C080
:10198000FB01E20FF31F8D9180832F5F3F4F2417E0
:10199000B8F3842F08951F93582F122F413210F05F
:1019A00081E03CC0809180038823E1F782E080934E
:1019B00080038FEF809391031092880340938903F3
:1019C000A0918603B0918703FB0102C081918D93A2
:1019D0008E2F861B8417D0F3852F90E0880F991FD8
:1019E0008093810385EE8093BC00112321F08091C8
:1019F00080038230E1F3809191038F3F11F480E006
:101A00000DC080919103803211F482E007C0809173
:101A10009103803311F084E001C083E01F910895A9
:101A2000482F613210F081E0089580918003843066
:101A300011F082E0089560938D03A0918A03B09124
:101A40008B03842F9C01F90102C081918D938E2F0D
:101A5000841B8617D0F380E00895909385038093CC
:101A600084030895909383038093820308958823C9
:101A700011F085EC01C085E88093BC00089585EDE8
:101A80008093BC008091BC0084FDFCCF1092800349
:101A9000089585EC8093BC001092800308951F92F6
:101AA0000F920FB60F9211242F933F934F935F9392
:101AB0006F937F938F939F93AF93BF93EF93FF9316
:101AC0008091B90090E0887F90708036910509F48C
:101AD000E2C081369105CCF58832910509F47BC0CE
:101AE00089329105B4F48031910509F46FC08131D8
:101AF00091053CF4009709F438C1089709F040C1FA
:101B000065C08831910509F466C0809709F038C135
:101B10007FC08034910509F4A3C08134910544F459
:101B20008033910509F47FC0C89709F029C186C0A8
:101B30008035910509F486C08835910509F495C072
:101B40008834910509F01CC19EC08839910509F4BB
:101B500004C189399105ECF48837910509F49BC0DB
:101B6000893791054CF48836910509F494C0803783
:101B7000910509F005C18FC08838910509F4EDC0C1
:101B80008039910509F48DC08038910509F0F8C0BD
:101B900088C0803B910509F4B2C0813B91054CF4AB
:101BA000803A910509F491C0883A910509F0E8C09E
:101BB000A6C0803C910509F4D4C0883C910509F485
:101BC000D0C0883B910509F0DBC0B1C08091810392
:101BD0008093BB00C0C090918803809189039817BF
:101BE00078F490918803E0918603F0918703E90FE0
:101BF000F11D80818093BB009F5F90938803ABC0F1
:101C000085ED8093BC008091BC0084FDFCCFB6C004
:101C100080E28093910385ED8093BC008091BC00AD
:101C200084FDFCCFABC080E38093910385ED80936E
:101C3000BC008091BC0084FDFCCFA0C088E38093F1
:101C400091038FC0809188039091BB00E09186033F
:101C5000F0918703E80FF11D90838F5F80938803D5
:101C6000909188038091890374C08091880390913A
:101C7000BB00E0918603F0918703E80FF11D90838C
:101C80008F5F8093880385ED8093BC008091BC00BA
:101C900084FDFCCF73C083E0809380031092900397
:101CA0005AC080919003803208F057C08091900311
:101CB0009091BB00E0918E03F0918F03E80FF11D2E
:101CC00090838F5F8093900346C080919003803211
:101CD00048F480919003E0918E03F0918F03E80F18
:101CE000F11D108260919003E0918403F0918503CF
:101CF00080918E0390918F0370E0099532C084E04B
:101D00008093800310928C0310928D03E0918203E4
:101D1000F0918303099580918D03882341F481E03C
:101D200080938D03E0918A03F0918B031082909150
:101D30008C03E0918A03F0918B03E90FF11D808100
:101D40008093BB009F5F90938C0390918C03809154
:101D50008D03981710F485EC01C085E88093BC00D2
:101D60000FC085EC8093BC0009C01092910385EDF3
:101D70008093BC008091BC0084FDFCCF1092800356
:101D8000FF91EF91BF91AF919F918F917F916F9153
:101D90005F914F913F912F910F900FBE0F901F9029
:101DA000189510928003449A459AE9EBF0E08081FF
:101DB0008E7F808380818D7F808388E48093B800CC
:101DC00085E48093BC0080E290E061E070E00E94D6
:101DD000AB16809386039093870380E290E061E0E6
:101DE00070E00E94AB1680938A0390938B0380E28D
:101DF00090E061E070E00E94AB1680938E039093B8
:101E00008F030895EF92FF920F931F937B018C0134
:101E100020E030E040E05FE40E947E1288238CF0F6
:101E2000C801B70120E030E040E05FE40E947A1092
:101E30000E943C139B01AC01205030404040504870
:101E400006C0C801B7010E943C139B01AC01B90157
:101E5000CA011F910F91FF90EF900895A0E0B0E0AC
:101E6000E4E3FFE00C946E16DC012B01FA019C9177
:101E7000923008F439C1EB018881823008F433C113
:101E8000943069F4843009F02FC111969C91119718
:101E90008981981709F428C1A3E1B1E025C18430F4
:101EA00009F421C18230A9F4923009F01DC19A01D0
:101EB000AD0188E0EA010990AE01E90109929E01B5
:101EC0008150C1F7E201898111969C918923818318
:101ED00008C1923009F407C112962D903C901397D7
:101EE000EB018A819B811496AD90BD90CD90DC90E2
:101EF0001797EC80FD800E811F819101281B390B03
:101F0000B90137FF04C066277727621B730B603265
:101F100071050CF061C0121613066CF5370148010B
:101F2000062E04C096948794779467940A94D2F707
:101F300021E030E040E050E004C0220F331F441F96
:101F4000551F6A95D2F721503040404050402E2115
:101F50003F2140235123211531054105510521F031
:101F600021E030E040E050E079018A01E628F728DE
:101F7000082919293CC0232BD1F1260E371E350123
:101F80004601062E04C096948794779467940A9429
:101F9000D2F721E030E040E050E004C0220F331FD0
:101FA000441F551F6A95D2F72150304040405040A1
:101FB0002A213B214C215D21211531054105510587
:101FC00021F021E030E040E050E059016A01A6280C
:101FD000B728C828D9280BC0821593052CF01C01FE
:101FE000AA24BB24650103C0EE24FF2487011196B7
:101FF0009C91D20111968C91981709F445C09923B0
:1020000039F0A80197012A193B094C095D0906C05E
:10201000A60195012E193F09400B510B57FD08C031
:1020200011823382228224833583468357831DC0E5
:1020300081E081833382228288279927DC01821BF9
:10204000930BA40BB50B84839583A683B7830DC034
:10205000220F331F441F551F248335834683578324
:102060008281938101979383828324813581468184
:102070005781DA01C9010197A109B1098F5F9F4F0B
:10208000AF4FBF4328F30BC0918333822282EA0C07
:10209000FB1C0C1D1D1DE482F5820683178383E063
:1020A0008083248135814681578157FF1AC0C90139
:1020B000AA2797FDA095BA2F81709070A070B0707C
:1020C0005695479537952795822B932BA42BB52BA7
:1020D00084839583A683B7838281938101969383BA
:1020E0008283DF0101C0D201CD01CDB7DEB7E2E1CD
:1020F0000C948A16A0E2B0E0E0E8F0E10C947A16C5
:1021000069837A838B839C832D833E834F83588797
:10211000E9E0EE2EF12CEC0EFD1ECE010196B7018A
:102120000E942D158E010F5E1F4FCE010596B8013E
:102130000E942D158A8991E089278A8BC701B801F1
:10214000AE01475E5F4F0E942E0F0E945814A0966A
:10215000E6E00C949616A0E2B0E0E1EBF0E10C941E
:102160007A1669837A838B839C832D833E834F8386
:102170005887F9E0EF2EF12CEC0EFD1ECE010196F2
:10218000B7010E942D158E010F5E1F4FCE010596DF
:10219000B8010E942D15C701B801AE01475E5F4F1F
:1021A0000E942E0F0E945814A096E6E00C949616FA
:1021B000A0E2B0E0EEEDF0E10C946E1669837A8354
:1021C0008B839C832D833E834F835887CE0101965A
:1021D000BE01675F7F4F0E942D15CE010596BE019F
:1021E0006F5E7F4F0E942D159985923088F0898906
:1021F0008230C8F0943019F4823051F404C0843035
:1022000029F4923081F483E191E0C6C0923049F420
:1022100020E09A858A89981321E02A87CE010996C1
:10222000BBC0823049F420E09A858A89981321E066
:102230002A8BCE014196B0C02D843E844F845888AD
:102240006D887E888F88988CEE24FF248701AA24CD
:10225000BB24650140E050E060E070E0E0E0F0E0C9
:10226000C10181709070892BE9F0E60CF71C081D04
:10227000191D9A01AB012A0D3B1D4C1D5D1D80E00F
:1022800090E0A0E0B0E0E614F7040805190520F49A
:1022900081E090E0A0E0B0E0BA01A901480F591F29
:1022A0006A1F7B1FAA0CBB1CCC1CDD1C97FE08C040
:1022B00081E090E0A0E0B0E0A82AB92ACA2ADB2A8F
:1022C0003196E032F10549F0660C771C881C991CA8
:1022D0005694479437942794C3CFFA85EA892B897B
:1022E0003C898B859C85280F391F2E5F3F4F17C077
:1022F000CA0181709070892B61F016950795F7944B
:10230000E79480E090E0A0E0B0E8E82AF92A0A2B00
:102310001B2B76956795579547952F5F3F4F77FD18
:10232000E7CF0CC0440F551F661F771F17FD416094
:10233000EE0CFF1C001F111F21503040403090E078
:10234000590790E0690790E4790760F32B8F3C8F81
:10235000DB01CA018F779070A070B0708034910556
:10236000A105B10561F447FD0AC0E114F1040105BE
:10237000110529F0405C5F4F6F4F7F4F40781A8EF8
:10238000FE1711F081E08A8F4D8F5E8F6F8F78A3DB
:1023900083E0898FCE0149960E945814A096E2E10D
:1023A0000C948A16A8E1B0E0E8EDF1E10C94761601
:1023B00069837A838B839C832D833E834F835887E5
:1023C000B9E0EB2EF12CEC0EFD1ECE010196B7010B
:1023D0000E942D158E010F5E1F4FCE010596B8018C
:1023E0000E942D152985223008F47EC039893230AB
:1023F00010F4B8017CC08A859A8989278A8724309D
:1024000011F0223031F4231709F06EC063E171E05E
:102410006EC0343039F41D861E861F86188A1C86CD
:102420001B8604C0323021F484E08987B7015FC085
:102430002B853C858B899C89281B390B3C872B87F6
:10244000ED84FE840F851889AD88BE88CF88D88C2E
:10245000EA14FB040C051D0540F4EE0CFF1C001FE4
:10246000111F215030403C872B8720E030E040E0B6
:1024700050E080E090E0A0E0B0E460E070E0EA14BA
:10248000FB040C051D0540F0282B392B4A2B5B2B38
:10249000EA18FB080C091D09B695A795979587952D
:1024A000EE0CFF1C001F111F6F5F7F4F6F31710516
:1024B00031F7DA01C9018F779070A070B070803465
:1024C0009105A105B10561F427FD0AC0E114F104ED
:1024D0000105110529F0205C3F4F4F4F5F4F2078D9
:1024E0002D873E874F87588BBE01675F7F4FCB019B
:1024F0000E9458146896EAE00C949216A8E1B0E0A5
:10250000E4E8F2E10C947A1669837A838B839C83E6
:102510002D833E834F83588789E0E82EF12CEC0E03
:10252000FD1ECE010196B7010E942D158E010F5E92
:102530001F4FCE010596B8010E942D158985823066
:1025400040F08989823028F0C701B8010E94A515A2
:1025500001C08FEF6896E6E00C949616A8E1B0E013
:10256000E4EBF2E10C947A1669837A838B839C8383
:102570002D833E834F83588789E0E82EF12CEC0EA3
:10258000FD1ECE010196B7010E942D158E010F5E32
:102590001F4FCE010596B8010E942D158985823006
:1025A00040F08989823028F0C701B8010E94A51542
:1025B00001C081E06896E6E00C949616A8E0B0E0D1
:1025C000E4EEF2E10C9477169B01AC0183E0898381
:1025D000DA01C9018827B7FD83959927AA27BB2768
:1025E000B82E211531054105510519F482E0898382
:1025F0003AC08823A9F0203080E0380780E04807FF
:1026000080E8580729F460E070E080E09FEC30C07B
:10261000EE24FF248701E21AF30A040B150B02C013
:1026200079018A018EE1C82ED12CDC82CB82ED8229
:10263000FE820F831887C801B7010E940914019711
:102640001816190684F4082E04C0EE0CFF1C001F97
:10265000111F0A94D2F7ED82FE820F831887C81AE1
:10266000D90ADC82CB82BA82CE0101960E9458142C
:102670002896E9E00C949316ACE0B0E0E2E4F3E1D4
:102680000C947E1669837A838B839C83CE0101969A
:10269000BE016B5F7F4F0E942D158D81823061F1ED
:1026A000823050F1843021F48E81882351F12EC084
:1026B0002F81388537FD20C06E812F3131051CF008
:1026C0006623F9F023C08EE190E0821B930B2985ED
:1026D0003A854B855C8504C0569547953795279577
:1026E0008A95D2F76623B1F05095409530952195A3
:1026F0003F4F4F4F5F4F0EC020E030E040E050E0D2
:1027000009C02FEF3FEF4FEF5FE704C020E030E05C
:1027100040E050E8B901CA012C96E2E00C949A1608
:10272000A8E0B0E0E6E9F3E10C9476167B018C01B9
:10273000611571058105910519F482E0898360C0F6
:1027400083E089838EE1C82ED12CDC82CB82ED829E
:10275000FE820F831887C801B7010E940914FC018B
:102760003197F7FF3BC0222733272E1B3F0B570122
:102770006801022E04C0D694C794B794A7940A9413
:10278000D2F740E050E060E070E081E090E0A0E04F
:10279000B0E004C0880F991FAA1FBB1F2A95D2F76B
:1027A0000197A109B1098E219F21A023B123009790
:1027B000A105B10521F041E050E060E070E04A2958
:1027C0005B296C297D294D835E836F8378878EE139
:1027D00090E08E1B9F0B9C838B8312C0309781F0FF
:1027E0000E2E04C0EE0CFF1C001F111F0A94D2F71E
:1027F000ED82FE820F831887CE1ADF0ADC82CB823D
:102800001A82CE0101960E9458142896EAE00C9490
:102810009216EF92FF920F931F937B018C0180E041
:10282000E81680E0F80681E0080780E0180788F4E1
:102830008FEFE816F1040105110531F028F088E06A
:1028400090E0A0E0B0E017C080E090E0A0E0B0E051
:1028500012C080E0E81680E0F80680E0080781E01A
:10286000180728F088E190E0A0E0B0E004C080E123
:1028700090E0A0E0B0E020E230E040E050E0281B33
:10288000390B4A0B5B0B04C016950795F794E79438
:102890008A95D2F7F701E55EFE4F8081281B31094A
:1028A00041095109C9011F910F91FF90EF900895BF
:1028B000DF92EF92FF920F931F93FC01E480F5806B
:1028C00006811781D1808081823048F480E090E0D9
:1028D000A0E1B0E0E82AF92A0A2B1B2BA5C084301E
:1028E00009F49FC0823021F4EE24FF24870105C043
:1028F000E114F1040105110519F4E0E0F0E096C0DF
:10290000628173819FEF623879070CF05BC022E827
:102910003FEF261B370B2A3131052CF020E030E049
:1029200040E050E02AC0B801A701022E04C076950D
:102930006795579547950A94D2F781E090E0A0E01B
:10294000B0E004C0880F991FAA1FBB1F2A95D2F7B9
:102950000197A109B1098E219F21A023B1230097DE
:10296000A105B10521F081E090E0A0E0B0E09A017E
:10297000AB01282B392B4A2B5B2BDA01C9018F774E
:102980009070A070B07080349105A105B10539F444
:1029900027FF09C0205C3F4F4F4F5F4F04C0215CB1
:1029A0003F4F4F4F5F4FE0E0F0E02030A0E03A07AC
:1029B000A0E04A07A0E45A0710F0E1E0F0E0790156
:1029C0008A0127C06038710564F5FB01E158FF4FAB
:1029D000D801C7018F779070A070B07080349105D6
:1029E000A105B10539F4E7FE0DC080E490E0A0E058
:1029F000B0E004C08FE390E0A0E0B0E0E80EF91E84
:102A00000A1F1B1F17FF05C016950795F794E7943B
:102A1000319687E016950795F794E7948A95D1F754
:102A200005C0EE24FF248701EFEFF0E06E2F6795DD
:102A300066276795902F9F77D794DD24D7948E2FA4
:102A40008695492F462B582F5D29B701CA011F9142
:102A50000F91FF90EF90DF900895FC01DB01408122
:102A600051812281622F6F7770E0221F2227221F5F
:102A70009381892F880F822B282F30E0991F992767
:102A8000991F11969C93119721153105A9F54115B0
:102A900051056105710511F482E037C082E89FEFAE
:102AA00013969C938E9312979A01AB0167E0220FC5
:102AB000331F441F551F6A95D1F783E08C930DC0D7
:102AC000220F331F441F551F12968D919C9113970F
:102AD000019713969C938E931297203080E03807CD
:102AE00080E0480780E4580758F314962D933D93EF
:102AF0004D935C93179708952F3F310579F4411555
:102B000051056105710519F484E08C93089564FF03
:102B100003C081E08C9312C01C9210C02F5730402C
:102B200013963C932E93129783E08C9387E0440F87
:102B3000551F661F771F8A95D1F7706414964D93C1
:102B40005D936D937C93179708951F93DC01FB01B0
:102B50009C91923008F447C08081823008F443C0D1
:102B6000943051F411961C91843099F58181682F2D
:102B700070E0611B71093FC0843021F0923031F464
:102B80008230B9F18181882389F12DC011961C9181
:102B900011978230F1F081811817D9F412962D9196
:102BA0003C911397828193818217930794F02817A1
:102BB0003907BCF014968D919D910D90BC91A02D7C
:102BC0002481358146815781281739074A075B07D9
:102BD00018F4112341F00AC082179307A407B50720
:102BE00040F4112319F061E070E005C06FEF7FEF52
:102BF00002C060E070E0CB011F910895991B79E05D
:102C000004C0991F961708F0961B881F7A95C9F77C
:102C10008095089597FB092E07260AD077FD04D0EA
:102C200049D006D000201AF4709561957F4F089521
:102C3000F6F7909581959F4F0895A1E21A2EAA1B51
:102C4000BB1BFD010DC0AA1FBB1FEE1FFF1FA2175C
:102C5000B307E407F50720F0A21BB30BE40BF50B59
:102C6000661F771F881F991F1A9469F760957095E2
:102C7000809590959B01AC01BD01CF01089597FB14
:102C8000092E05260ED057FD04D0D7DF0AD0001C30
:102C900038F450954095309521953F4F4F4F5F4FF9
:102CA0000895F6F790958095709561957F4F8F4FB9
:102CB0009F4F0895AA1BBB1B51E107C0AA1FBB1F52
:102CC000A617B70710F0A61BB70B881F991F5A95B8
:102CD000A9F780959095BC01CD0108952F923F9260
:102CE0004F925F926F927F928F929F92AF92BF921C
:102CF000CF92DF92EF92FF920F931F93CF93DF93C8
:102D0000CDB7DEB7CA1BDB0B0FB6F894DEBF0FBE24
:102D1000CDBF09942A88398848885F846E847D8471
:102D20008C849B84AA84B984C884DF80EE80FD8073
:102D30000C811B81AA81B981CE0FD11D0FB6F894E9
:102D4000DEBF0FBECDBFED010895EE0FFF1F059052
:102D5000F491E02D09940F931F93CF93DF93689F15
:102D60008001699F100D789F100D1124C8010E94E9
:102D7000C716EC01009729F060E070E0A8010E94FE
:102D8000CC17CE01DF91CF911F910F910895CF9372
:102D9000DF93BC018230910510F462E070E0A091F5
:102DA0009403B0919503ED01E0E0F0E040E050E0E5
:102DB00021C0888199818617970769F48A819B8150
:102DC000309719F09383828304C090939503809386
:102DD0009403FE0134C06817790738F44115510592
:102DE00019F08417950708F4AC01FE018A819B81D4
:102DF0009C01E9012097E9F641155105A9F1CA01A5
:102E0000861B970B049708F4BA01E0E0F0E02AC0B3
:102E10008D919C91119784179507F9F464177507A4
:102E200081F412968D919C911397309719F09383AA
:102E3000828304C09093950380939403FD0132969E
:102E40004FC0CA01861B970BFD01E80FF91F619364
:102E5000719302978D939C9343C0FD01828193816E
:102E60009C01D9011097A1F6809192039091930350
:102E7000892B41F480911D0290911E02909393033F
:102E80008093920340911F025091200241155105F9
:102E900041F44DB75EB780911B0290911C02481B14
:102EA000590B209192033091930324173507B0F406
:102EB000CA01821B930B8617970780F0AB014E5F08
:102EC0005F4F8417950750F0420F531F50939303A1
:102ED00040939203F9016193719302C0E0E0F0E046
:102EE000CF01DF91CF910895CF93DF93009709F43D
:102EF00050C0EC0122971B821A82A0919403B091DA
:102F00009503109709F140E050E0AC17BD0708F1B8
:102F1000BB83AA83FE0121913191E20FF31FAE170B
:102F2000BF0779F48D919C911197280F391F2E5F5F
:102F30003F4F3983288312968D919C9113979B83E1
:102F40008A834115510571F4D0939503C09394037E
:102F500020C012968D919C911397AD01009711F0AE
:102F6000DC01D3CFFA01D383C28321913191E20FE7
:102F7000F31FCE17DF0769F488819981280F391F65
:102F80002E5F3F4FFA01318320838A819B81938397
:102F90008283DF91CF910895DC0101C06D93415090
:0A2FA0005040E0F70895F894FFCFC9
:102FAA00466972696E673A2000050000000000F465
:102FBA00042E0000000000000000000001020203CD
:102FCA0003030304040404040404040505050505B5
:102FDA000505050505050505050505060606060692
:102FEA000606060606060606060606060606060677
:102FFA000606060606060606060606070707070762
:10300A000707070707070707070707070707070746
:10301A000707070707070707070707070707070736
:10302A000707070707070707070707070707070726
:10303A000707070707070707070707080808080811
:10304A0008080808080808080808080808080808F6
:10305A0008080808080808080808080808080808E6
:10306A0008080808080808080808080808080808D6
:10307A0008080808080808080808080808080808C6
:10308A0008080808080808080808080808080808B6
:10309A0008080808080808080808080808080808A6
:1030AA000808080808080808080808080808080896
:1030BA0008080808080808080808082000960300F5
:0230CA00000004
:00000001FF
